:10001200758A4C758C00D28C308DFDC28CC28D22BB
:0F005100D2993099FDC2998F993099FDC29922A9
:10006000EBFDEAFCE9F8EDFBECFAE8F9120026609A
:01007000147B
:10007100EDFBECFAE8F9120026FF12005108E870D6
:05008100E40C80E12207
:10008600759850758921758BFD758DFDD28ED2AC14
:0D009600D2AF7F41120051120051120051F3
:0300A3003000FD2D
:1000A600C200E508249F600D14601E24FE6016241D
:0500B600EF600E801B4D
:1000BB00D293120012120012C29380DCD29480D819
:0D00CB00C29480D4C295120012D29580CB51
:0500D800C0D0309807C4
:0A00DD00C298859908D200D0D032F5
:030023000200D800
:03000000020003F8
:0F000300758121E4787FF6D8FD75A0FF02008695
:10002600EB30E11320E00EC083C08289828A83E030
:10003600D082D08322E3226405700EC083C08289F9
:0B004600828A8393D082D08322E722BD
:00000001FF
